:0A070C0028EE32A2E4A121EA20A0A9
:0E0003000415FFFFFFFF02190001020A003280
:10068100E4FDFCC3ED9FEC9E5015E4FBFA0BBB00AF
:0F069100010AEB64784A70F50DBD00010C80E49E
:0106A0002237
:1005CA00E4F51243A007E5A05407640760327F01EF
:1005DA007E00120681E5A0540764076026E508B488
:1005EA000121E4F508E5A0540724FD600F24FE600C
:1005FA000714700F75120322751202227512012256
:03060A007508016F
:01060D0022CA
:1003E800E512B4010C050CE50CC394024003E4F5D6
:1003F8000CE50C6401600302049AE512B4021705C7
:100408000BE50B7002050AD394F4E50A9401400643
:10041800750A01750BF4E512B40319E50B150B7099
:1004280002150AD3E50B9401E50A94005006750AF3
:1004380000750B01AE0AAF0B7C007D0A1201E37454
:100448000C2DF58274073CF583E493F515AE0AAFDD
:100458000B7C007D0A1201E37C007D0A1201E37423
:100468000C2DF58274073CF583E493F516AE0AAFBC
:100478000B7C007D641201E37C007D0A1201E374A9
:100488000C2DF58274073CF583E49354DFF517755A
:03049800186022C7
:1006BE00AE0AAF0BE4FCFDAB11AA10A90FA80ED326
:0B06CE001202465003B2A322D2A32266
:10065200EF14601014601614601C24037020C2B4DE
:10066200D2B58004D2B4C2B5D2B6D2B722D2B4D2F5
:0F067200B5C2B6D2B722D2B4D2B5D2B6C2B72271
:1006D9000509E509C394044003E4F509AF091206C5
:0906E9005274152509F8E6F5909C
:0106F20022E5
:0B0701000000000000000000000022CB
:10049B00D2B2120701C2B2E4F58CF58AC28C30B32A
:1004AB00FDD28C30B338AF8CEFFEAD8A7C00E42DDF
:1004BB00F514EC3EF513FEAF14E4FD7B407A9CF98A
:1004CB00F8C31202465012C28C750D02E4751178F6
:1004DB00751003F50FF50E8005750D0180C5E50D43
:1004EB006401704EC28C851411851310F50FF50E37
:1004FB00AF11AE10AD0FAC0EEC1201247B967A430C
:10050B00798B783C12001E1201628F118E108D0FA9
:10051B008C0EE47F587E02FDFCAB11AA10A90FA82C
:10052B000ED3120246400BE4751178751003F50FCC
:03053B00F50E2298
:0E06F300D2AF758911C2A9D28CD2ABD28E22A1
:10032A00C2A37F967E0012068175B0FF75A0FF7585
:10033A0090FF7580FF1206F3051AE51A7002051977
:10034A00C3942CE519940150030203D8E4F519F576
:10035A001A12049BE50C70737B0AFAF9F8AF11AE16
:10036A0010AD0FAC0E12060E740C2BF58274073A00
:10037A00F583E493F515E47B0AFAF9F8AF11AE10A8
:10038A00AD0FAC0E12060EE47B0AFAF9F812060E4D
:10039A00740C2BF58274073AF583E493F516E47B23
:1003AA0064FAF9F8AF11AE10AD0FAC0E12060EE4F6
:1003BA007B0AFAF9F812060E740C2BF58274073AC6
:1003CA00F583E49354DFF5177518FF1206BE12057C
:0E03DA00CA1203E87F017E0012068102034270
:03001B000206A139
:1006A100C0E0C0D075D000C000C007758DF8758B53
:0D06B100301206D9D007D000D0D0D0E032F2
:10001E00EC4D6011E8497017ED33EC3304600DE4DC
:10002E00FCFFFEFD22E933E8330470F80201CE1224
:10003E00019958046009E4CC248150062850090225
:10004E0001D82840030201D5C0E0EB4A7044B980C4
:10005E0006D0E0FB0201C4EF4E701CBD8008EBFF22
:10006E00EAFEE9FD80EBE98DF0A4FEE5F002010762
:10007E00E9CDF9EAFEEBFFEF89F0A4FCE5F0CE89BD
:10008E00F0A42EFFE435F0CD89F0A42DFEE435F07A
:10009E008067EF4E7005BD80D780C3EF8BF0A4ACA8
:1000AE00F0EE8BF0A42CFCE435F0F8EF8AF0A42CE3
:1000BE00E5F038FCE433CB8DF0A42CFCE5F03BF8F6
:1000CE00EE8AF0A42CFCE5F038F8E433CF89F0A4E6
:1000DE002CFCE5F038CF3400CE89F0A42FFFE5F0EC
:1000EE003EFEE433C98DF0A42EFEE5F039CD8AF044
:1000FE00A42FFFE5F03EFEE43DFD33D0E0FB5007BC
:10010E000BBB000F0201D8EC2CFCEF33FFEE33FEDD
:06011E00ED33FD0201B00B
:1001240075F020800E75F010800575F0087D007E56
:10013400007F003392D530D503120238EC334010DF
:10014400EF33FFEE33FEED33FDEC33FCD5F0ED225F
:0E015400E5F0247EA2D513CC92E7CDCEFF229B
:10016200EDD2E7CD33EC3392D524814006E4FFFE95
:10017200FDFC22FCE4CFCECDCC24E0501174FF80F4
:10018200EDC3CC13CCCD13CDCE13CECF13CF047091
:07019200F030D5DE02023857
:10019900E9D2E7C933E833F892D5EDD2E7CD33ECAC
:0701A90033FC5002B2D52225
:1001B000EC30E7100FBF000C0EBE00080DBD0004B0
:1001C0000BEB6014A2D5EB13FCED92E7FD2274FF5C
:1001D000FCFDFEFF22E480F8A2D574FF13FC7D80B5
:0301E000E480EFC9
:0300000002053EB8
:0C053E00787FE4F6D8FD75811A0205856F
:1001E300BC000BBE0029EF8DF084FFADF022E4CC00
:1001F300F875F008EF2FFFEE33FEEC33FCEE9DECC9
:10020300984005FCEE9DFE0FD5F0E9E4CEFD22ED0E
:10021300F8F5F0EE8420D21CFEADF075F008EF2F58
:10022300FFED33FD4007985006D5F0F222C398FD49
:050233000FD5F0EA22E6
:10060E00C2D5E830E70FB2D5E4C39BFBE49AFAE417
:10061E0099F9E498F8EC30E717B2D51206441202B5
:10062E0098E4C39BFBE49AFAE499F9E498F8800302
:10063E0012029830D50DE4C39FFFE49EFEE49DFDAB
:04064E00E49CFC220A
:0E023800C3E49FFFE49EFEE49DFDE49CFC22D7
:10024600EB9FF5F0EA9E42F0E99D42F0EC6480C82F
:0602560064809845F022CF
:10054A0002032AE493A3F8E493A34003F68001F29A
:10055A0008DFF48029E493A3F85407240CC8C333B2
:10056A00C4540F4420C8834004F456800146F6DF81
:10057A00E4800B0102040810204080900003E47E0E
:10058A00019360BCA3FF543F30E509541FFEE49376
:10059A00A360010ECF54C025E060A840B8E493A33D
:1005AA00FAE493A3F8E493A3C8C582C8CAC583CA68
:1005BA00F0A3C8C582C8CAC583CADFE9DEE780BE20
:0100110000EE
:10025C0075F008758200EF2FFFEE33FECD33CDCC59
:10026C0033CCC58233C5829BED9AEC99E5829840DC
:10027C000CF582EE9BFEED9AFDEC99FC0FD5F0D6B9
:10028C00E4CEFBE4CDFAE4CCF9A88222B800C1B9E3
:10029C000059BA002DEC8BF084CFCECDFCE5F0CB21
:1002AC00F97818EF2FFFEE33FEED33FDEC33FCEB5A
:1002BC0033FB10D703994004EB99FB0FD8E5E4F915
:1002CC00FA227818EF2FFFEE33FEED33FDEC33FC02
:1002DC00C933C910D7059BE99A4007EC9BFCE99AF6
:1002EC00F90FD8E0E4C9FAE4CCFB2275F010EF2F3B
:1002FC00FFEE33FEED33FDCC33CCC833C810D7073B
:10030C009BEC9AE899400AED9BFDEC9AFCE899F875
:0E031C000FD5F0DAE4CDFBE4CCFAE4C8F92208
:00000001FF
